:020000040800F2
:1000000090070020890100081B15000863130008F1
:1000100019150008E7020008151600080000000086
:100020000000000000000000000000001F15000894
:10003000E9020008000000001D1500082115000855
:10004000A3010008A3010008A3010008A301000800
:10005000A3010008A3010008A3010008A3010008F0
:10006000A3010008A3010008A3010008A3010008E0
:10007000A3010008A3010008A3010008A3010008D0
:10008000A3010008A3010008A3010008A3010008C0
:10009000A3010008A3010008A3010008A3010008B0
:1000A000A3010008A3010008A3010008A3010008A0
:1000B000A3010008A30100089D150008A301000882
:1000C000A3010008A3010008A3010008A301000880
:1000D000A3010008A3010008A3010008A301000870
:1000E000A3010008A3010008A301000800F002F822
:1000F00000F03AF80AA090E8000C82448344AAF188
:100100000107DA4501D100F02FF8AFF2090EBAE885
:100110000F0013F0010F18BFFB1A43F0010318473B
:10012000CC150000EC150000103A24BF78C878C147
:10013000FAD8520724BF30C830C144BF04680C60ED
:10014000704700000023002400250026103A28BF35
:1001500078C1FBD8520728BF30C148BF0B60704739
:100160001FB51FBD10B510BD00F058F81146FFF7C0
:10017000F7FF01F061FA00F076F803B4FFF7F2FF41
:1001800003BC00F07DF8000009488047094800479B
:10019000FEE7FEE7FEE7FEE7FEE7FEE7FEE7FEE737
:1001A000FEE7FEE704480549054A064B7047000094
:1001B0009B150008ED00000890010020900700202A
:1001C00090030020900300204FF0000200B513467A
:1001D00094469646203922BFA0E80C50A0E80C5067
:1001E000B1F12001BFF4F7AF090728BFA0E80C5018
:1001F00048BF0CC05DF804EB890028BF40F8042B11
:1002000008BF704748BF20F8022B11F0804F18BF7D
:1002100000F8012B7047704770477047754600F033
:100220002BF8AE4605006946534620F00700854688
:1002300018B020B5FFF7B6FFBDE820404FF000062C
:100240004FF000074FF000084FF0000B21F00701BE
:10025000AC46ACE8C009ACE8C009ACE8C009ACE801
:10026000C0098D46704710B50446AFF300802046A4
:10027000BDE81040FFF781BF004870473001002003
:1002800001491820ABBEFEE72600020070470000BF
:1002900070B5044600688168C943C90717D18168F1
:1002A00021F00101816000F073FA05460AE000BF09
:1002B00000F06EFA401B022804D920688068C04311
:1002C000C00706D020688068C043C007F0D0002077
:1002D00070BDA06A40F01000A062E06A40F001002A
:1002E000E062012070BDFEE7704772B6FEE70000D5
:1002F000F8B50024009490F824202546012A12D055
:10030000012280F824204A681F23072A0DD206689C
:10031000776B521E02EB820293409F430B6893401F
:100320001F43776319E00220F8BD06680D2A0AD240
:10033000376BD21F02EB820293409F430B689340BE
:100340001F43376309E0F76A0D3A02EB82029340DC
:100350009F430B6893401F43F7620A6807230668B0
:100360000A2A0AD3F7680A3A02EB420293409F43F3
:100370008B6893401F43F76008E0376902EB420245
:1003800093409F438B6893401F4337610A68102A4C
:1003900001D0112A20D1124B02689A4217D19368DA
:1003A0001B0219D4936843F4000393600968102971
:1003B00012D10C490C4A0968B1FBF2F101EB810141
:1003C000490000E0491E00910029FBD104E0816A48
:1003D00041F020018162012480F824502046F8BDBC
:1003E000002401400C00002040420F002DE9F041A4
:1003F0004FF0000704003D467ED0A06A002628B9D1
:10040000E66284F82460204600F07EF82046FFF77C
:100410003FFFA16AC90600D420B1A06A40F01000D5
:10042000A06269E0A16A21F4885141F00201A16251
:100430006268E169237B0A4347EA43010A43A168F2
:100440004FF48077B94209D0012907D05FF000014D
:1004500094F814C0BCF1010F02D00AE03946F7E766
:10046000F3B1A36A43F02003A362E36A43F00103FC
:10047000E3622368D3F804C02CF4694C4CEA010C05
:10048000C3F804C021688B68DFF870C003EA0C036E
:1004900013438B60A168B9420BD0012909D00CE04D
:1004A000DFF85CC0A3690CEB43330B4343F40061FA
:1004B000DFE7218A0D05A5F580152168CB6A23F4B5
:1004C00070032B43CB62216889680E4B194091421F
:1004D00008D1E662A16A21F0020141F00101A162A6
:1004E000BDE8F081A06A20F0020040F01000A06298
:1004F000E06A40F00100E0620120F1E7FDF7E1FF72
:1005000000E0FFFFFE0E1FFF10B586B00021009136
:1005100001910291039100681549884226D115483E
:10052000816941F400718161816901F40071049174
:10053000816941F004018161816901F00401049144
:10054000816941F0080181618069032400F008009D
:100550000490F020CDE900046946074800F022F835
:10056000009469460548019400F01CF806B010BDDF
:10057000002401400010024000080140000C01402E
:1005800070B5044600F004F90546601C02D004482A
:100590000078044400F0FCF8401BA042FAD370BD80
:1005A000000000202DE9F84FDFF8B8910024A9F1F0
:1005B000040B23460F2709F1040AABF1040EC9E02E
:1005C0000125A5402A40AA427DD1674ED1F804C03A
:1005D000ACEB0608B44532D014DCBCF1030F3AD0C2
:1005E00009DCBCF1000F2AD0BCF1010F1CD0BCF11A
:1005F000020F31D11DE0BCF1110F17D0BCF1120F69
:100600002AD119E0B8F5881F19D006DCB8F5803F6B
:1006100015D0B8F5801F1FD111E0B8F5001F0ED01E
:10062000B8F5041F18D10AE0CB6815E0CB681B1D94
:1006300012E0CB6808330FE0CB680C330CE08B681A
:100640002BB1012B4FF0080303D0456104E00423D4
:1006500002E0056100E00023FF2A01D8064601E020
:1006600000F104064FEA840501D9A5F12005D6F86A
:10067000008007FA05FC28EA0C0803FA05F548EAA9
:100680000508C6F800804D68ED0062D5374DAE69AB
:1006900046F00106AE61AD6924F0030605F00105E0
:1006A0000095334D06EB050CDCF80850A607360F15
:1006B00007FA06F825EA0805DFF8B880404503D1B7
:1006C0004FF0000817E044E0DFF8AC80404502D16D
:1006D0004FF001080FE0DFF8A480404502D14FF051
:1006E000020808E0DFF89880404502D14FF0030887
:1006F00001E04FF0040808FA06F848EA0508CCF8CB
:1007000008804D68D9F80060ED024D4601D51643CA
:1007100000E096432E604D68DAF80060AD02554661
:1007200001D5164300E096432E604D68DBF800606B
:10073000AD035D4601D5164300E096432E604D683B
:10074000DEF80060ED03754601D5164300E09643E0
:100750002E60641C0D682A46E5407FF431AFBDE889
:10076000F88F000008040140000011100010024042
:100770000000014000080140000C01400010014051
:10078000001401400AB1016170470904FBE7000051
:1007900001488068704700000000002070B5040028
:1007A00025D094F83D00002520B984F83C5020461F
:1007B00000F0B8F8242084F83D002068016821F09A
:1007C000010101602068016841F400410160206876
:1007D000016821F40041016000F0E0FA4D4A6168CF
:1007E000914201D84C4900E04C49884201D2012095
:1007F00070BD4B492368B0FBF1F15E6826F03F06FF
:100800000E435E606368934206D94FF49673594372
:100810004FF47A73B1FBF3F12368491C1E6A26F08A
:100820003F06314319626168914210D84900401E69
:10083000B0FBF1F2521CC2F30B02042A01D20420D5
:1008400022E0B0FBF1F0401CC0F30B001CE0A268FA
:10085000F2B301EBC10303EB0116431EB3FBF6F346
:100860005B1C43F480431B0549D092B301EBC102EA
:1008700002EB0111401EB0FBF1F0401CC0F30B0075
:1008800040F4804040F400402168CA694CF6FF7390
:100890009A431043C861D4E90710014320680268F5
:1008A00022F0C00211430160D4E903010143206832
:1008B000826848F2FF339A4311438160D4E905010D
:1008C00008432168CA6822F0FF021043C86001E0B3
:1008D0000EE016E02068016841F001010160256426
:1008E000202084F83D00256384F83E50002070BD30
:1008F00001EB4106431EB3FBF6F35B1CB3E701209B
:10090000C2E701EB4101401EB0FBF1F0401CC0F317
:100910000B00B7E7A086010080841E0000093D009F
:1009200040420F0030B585B0002100910191029145
:1009300003911E4D03681E4C122103221D48AB4239
:1009400016D1A36943F00803A361A369039203F0DE
:1009500008030493C023CDE900316946FFF722FE66
:10096000E06940F40010E061E06900F4001019E073
:10097000114DAB4217D1A36943F00803A361A369EA
:10098000039203F0080304934FF44063CDE9003170
:100990006946FFF707FEE06940F48000E061E06926
:1009A00000F48000049005B030BD00000054004009
:1009B00000100240000C01400058004002488168CD
:1009C000027811448160704700000020074810B58C
:1009D000016841F010010160032000F0A1F80F2030
:1009E00000F006F800F050F8002010BD0020024092
:1009F00030B505461F4887B0C16941F00401C161A7
:100A0000C06906A900F00400009001A800F0A6F952
:100A10000498B0B100F0C2F940001749174AB0FB82
:100A2000F1F11748491E0260416040F2E7320021AF
:100A3000C0E903218160816100F078FB040003D0EC
:100A400015E000F0ABF9E8E70D4800F09DFB04006D
:100A50000DD11E2000F036F8102D07D200222946B5
:100A60001E2000F03DF80748056000E0012407B0B3
:100A7000204630BD0010024040420F0000080040F8
:100A8000E8000020040000200C4808B5816941F00E
:100A900001018161816901F001010091C16941F0A9
:100AA0008051C161C06900F08050009004484168E5
:100AB00021F0E06141F00071416008BD001002408A
:100AC00000000140002809DB00F01F0201219140D5
:100AD0004009800000F1E020C0F8001170470000DC
:100AE000F0B40E4B1B680C46C3F30223C3F1070599
:100AF000042D00D90425191D072901D2002300E087
:100B0000DB1E012606FA05F1491E214099409E4050
:100B1000761E16403143F0BC00F07DBD0CED00E0C8
:100B2000064900F0070208684FF6FF03184040EA44
:100B30000220034A10430860704700000CED00E0FB
:100B40000000FA052DE9F84305460078354CC0074A
:100B500054D0E0690026C00008D4E06940F080501D
:100B6000E061E069012600F0805000902E480168A5
:100B7000C90512D40168804641F480710160FFF715
:100B800007FE074605E000BFFFF702FEC01B642812
:100B900023D8D8F80000C005F6D5206A10F44070BC
:100BA00021D0A98801F4407181421CD0206A1F49DC
:100BB000012220F440700A6000220A602062C0070F
:100BC00011D0FFF7E5FD074641F2883808E000BF85
:100BD000FFF7DEFDC11B414502D90320BDE8F883C4
:100BE000206A8007F4D5206A696820F440700843C1
:100BF00020621EB1E06920F08050E0612878800713
:100C000005D56068A96820F44040084360602878F2
:100C1000C00605D56068E96820F48000084360607C
:100C20000020DBE700100240007000404004424218
:100C30002DE9F0470F46050061D0434E306800F0C3
:100C40000700B84209D2306820F00700384330600E
:100C5000306800F00700B84251D128683B4C81074A
:100C600012D5400703D5606840F4E06060602878E2
:100C7000000703D5606840F4605060606068A96850
:100C800020F0F000084360602878C00728D068682A
:100C9000012810D02168022810D0890700292EDAF7
:100CA000616821F0030101436160FFF771FD804637
:100CB00041F288390DE021688903EFE78901EDE70A
:100CC000FFF766FDA0EB0801494502D90320BDE806
:100CD000F0876068696800F00C00B0EB810FEFD11D
:100CE000306800F00700B8420BD9306820F00700E8
:100CF00038433060306800F00700B84201D001206E
:100D0000E5E72878400705D56068E96820F4E060E9
:100D1000084360602878000706D56068296920F4D8
:100D2000605040EAC100606000F048F86168084A1D
:100D3000C1F30311515CC8400649086006480068C9
:100D4000FFF756FE0020C2E70020024000100240DC
:100D5000D21600080C000020040000200F220260C0
:100D60000C4A536803F003034360536803F0F00335
:100D70008360536803F4E063C36052684FF4E06338
:100D800003EAD20202610448006800F0070008602C
:100D9000704700000010024000200240044805494E
:100DA00000684968044AC1F30221515CC840704799
:100DB0000C00002000100240E21600080E4A5168A4
:100DC0000E4801F00C03042B11D0082B0FD10C4856
:100DD000C1F38343C903C05C0AD55168084AC1F313
:100DE0004041921E515C054A5043B0FBF1F0704700
:100DF00004494843704700000010024000127A0086
:100E0000C216000800093D002DE9F84F040070D01B
:100E10002078C04DC00749D06868C0F38100012820
:100E200007D06868C0F38100022809D16868C00350
:100E300006D52868800339D560680028E7D035E0FA
:100E40006068B0F5803F0BD010B1B0F5A02F11D085
:100E5000286820F480302860286820F4802002E090
:100E6000286840F480302860606890B1FFF790FCFB
:100E700006460AE0286840F480202860F0E700BFBA
:100E8000FFF786FC801B642873D828688003F7D599
:100E90000CE0FFF77DFC064605E000BFFFF778FC9D
:100EA000801B6428F0D828688003F7D420789A4EF5
:100EB00080074FF001094FF0000839D5686810F03D
:100EC0000C0F07D06868C0F38100022809D1686858
:100ED000C00306D42868800714D52069012808D1EA
:100EE00010E02069B0B1C6F80090FFF751FC07464A
:100EF00005E00AE1FFF74CFCC01B0228C4D82868B3
:100F00008007F7D52868616920F0F80040EAC10041
:100F100028600DE0C6F80080FFF73AFC074604E0C1
:100F2000FFF736FCC01B022823D828688007F7D4B7
:100F3000207800072CD57948A169D9B1C0F8009074
:100F4000FFF726FC074604E0FFF722FCC01B02283F
:100F50000FD8686A8007F7D571484FF4FA510068D6
:100F6000B0FBF1F0009000BF0098411E0091FAD252
:100F70000EE080E0C0F80080FFF70AFC074604E0BE
:100F8000FFF706FCC01B022875D8686A8007F7D4F3
:100F90002078400760D5E8690027C00008D4E869D8
:100FA00040F08050E861E869012700F0805000902F
:100FB0005C480168C90513D40168834641F4807117
:100FC0000160FFF7E5FB824606E000BFFFF7E0FBAC
:100FD000A0EB0A0064284ED8DBF80000C005F5D568
:100FE000E06801280AD008B1052813D0286A20F04B
:100FF00001002862286A20F0040002E0286A40F01C
:1010000001002862E06841F2883B98B1FFF7C0FB1D
:1010100082460BE0286A40F004002862EEE700BF39
:10102000FFF7B6FBA0EB0A0159455AD8286A80079A
:10103000F6D50CE0FFF7ACFB824605E0FFF7A8FB16
:10104000A0EB0A0159454CD8286A8007F6D41FB195
:10105000E86920F08050E861E06988B36968C1F30D
:101060008101022944D00228C6F8608004D0FFF72D
:101070008FFB044638E034E0FFF78AFB074604E0C4
:10108000FFF786FBC01B02282BD828688001F7D405
:10109000206AB0F5803F05D16868A16820F400306F
:1010A00008436860D4E908010843696821F47411B1
:1010B00008436860C6F86090FFF76AFB044606E0E4
:1010C00025E000BFFFF764FB001B022809D8286851
:1010D0008001F7D51BE000BFFFF75AFB001B022879
:1010E00002D90320BDE8F88F28688001F4D40EE00F
:1010F0000128F7D06868226A00F48031914204D157
:10110000616A00F47010884201D00120EAE70020F3
:10111000E8E7000000100240000042428004424222
:101120000C000020007000407047704710B50400AC
:1011300003D094F83D0010B107E0012010BD00205D
:1011400084F83C00204600F01EF8022084F83D00A0
:10115000211D206800F028FA012084F8460084F858
:101160003E0084F83F0084F8400084F8410084F891
:10117000420084F8430084F8440084F8450084F871
:101180003D00002010BD704790F83D10012901D0AE
:1011900001207047022180F83D100168CA6842F0C2
:1011A0000102CA6000680B49884208D0B0F1804F44
:1011B00005D00949884202D00849884204D1816893
:1011C00001F00701062903D0016841F00101016027
:1011D00000207047002C014000040040000800403F
:1011E000704770B50446006801694FF00005C943B7
:1011F000890715D4C168C943890711D4E91E016163
:1012000001202077206880698007204602D0FFF700
:10121000E7FF04E000F098F8204600F096F8257704
:1012200020680169C943490717D4C168C943490700
:1012300013D46FF0040101610220207720688069D7
:1012400010F4407F204602D0FFF7CAFF04E000F010
:101250007BF8204600F079F8257720680169C943BA
:10126000090716D4C168C943090712D46FF00801F1
:101270000161042020772068C0698007204602D0E1
:10128000FFF7AEFF04E000F05FF8204600F05DF8E5
:10129000257720680169C943C90617D4C168C943C5
:1012A000C90613D46FF0100101610820207720686F
:1012B000C06910F4407F204602D0FFF791FF04E0A0
:1012C00000F042F8204600F040F8257720680169D8
:1012D000C943C90708D1C168C943C90704D1891ED8
:1012E0000161204600F032F820680169C94309060F
:1012F00009D4C168C943090605D46FF080010161B2
:101300002046FFF711FF20680169C943490609D447
:10131000C168C943490605D46FF040010161204608
:1013200000F01EF820680169C94389060BD4C16822
:10133000C943890607D46FF0200101612046BDE84A
:101340007040FFF7F2BE70BD7047704700680349F8
:10135000884201D1FFF732BB70470000000800400F
:101360007047FEE73EB500241148009401940294B2
:101370000E498460016004730475012505614FF412
:1013800060214460C161FFF731F808B1FEF7ADFF9D
:101390000620CDE90005694602940548FEF7A8FF3E
:1013A000002801D0FEF7A1FF3EBD0000002401404F
:1013B000100000202DE9F04F85B00025324800953F
:1013C000019502950395816941F010018161816960
:1013D00001F010010491816941F02001816181696E
:1013E00001F020010491816941F00401816181696A
:1013F00001F004010491816941F008018161806973
:10140000DFF8889000F008004FF4005404900022A8
:1014100021464846FFF7B6F9DFF874A04FF4E057CD
:10142000002239465046FFF7ADF9DFF868B04FF4B7
:101430009C78002241465846FFF7A4F90126CDE9E1
:1014400000460224CDE9025469464846FFF7AAF84F
:10145000CDE90254CDE9007669465046FFF7A2F87F
:10146000CDE90254CDE9008669465846FFF79AF85F
:101470002002CDE90004694658460394FFF792F82C
:1014800005B0BDE8F08F00000010024000100140E0
:1014900000080140000C01400D4810B50B490160E7
:1014A0000C49416000214FF480428160C0E9031281
:1014B00041618161C1610162FFF770F9002803D0C9
:1014C000BDE81040FEF711BF10BD00000054004001
:1014D00040000020A08601000D4810B50B490160B6
:1014E0000C49416000214FF480428160C0E9031241
:1014F00041618161C1610162FFF750F9002803D0A9
:10150000BDE81040FEF7F1BE10BD000000580040DD
:1015100094000020A0860100FEE7FEE770477047B8
:10152000704730B593B028216846FEF74DFE142170
:101530000AA8FEF749FE002501200F951095119588
:10154000010412958DE8230004904FF4E010CDE9DA
:101550000810022407946846FFF756FC08B172B6DB
:10156000FEE70AA90F2081E831004FF48060CDE941
:101570000D0502210AA8FFF75BFB08B172B6FEE772
:101580004FF4004011900F940FA8FFF7DBFA0028EA
:1015900001D072B6FEE713B030BD70470148FFF7C7
:1015A00020BE0000E8000020F0B50268164B174C82
:1015B000174D4FF08047984205D0B84203D0A04263
:1015C00001D0A84203D122F070064A683243984203
:1015D00005D0B84203D0A04201D0A84203D122F4E2
:1015E0004074CA6822434C6922F0800222430260A0
:1015F0008A68C2620A688262984201D109690163FD
:1016000001214161F0BD0000002C014000040040B8
:1016100000080040FEE70907090E002804DB00F17E
:10162000E02080F80014704700F00F0000F1E02087
:1016300080F8141D70470000FFF7C8F9FFF771FF2D
:10164000FFF7B8FEFFF728FFFFF78CFEFFF744FF18
:10165000194C1A4DA615A7144FF400684FF4806971
:10166000002210212046FFF78DF80122202120467C
:10167000FFF788F8012231462046FFF783F8012260
:1016800008212046FFF77EF8002239462846FFF75A
:1016900079F8012241462846FFF774F801224946AD
:1016A0002846FFF76FF8012208212046FFF76AF865
:1016B0006420FEF765FFD3E7000C014000080140FD
:1016C000010202030405060708090A0B0C0D0E0FA0
:1016D00010100000000000000000010203040607D3
:1016E0000809000000000102030400000C170008B4
:1016F0000000002010000000280100081C1700084E
:1017000010000020800700004401000801000000D4
:0C17100010000000000000000024F400A5
:04000005080000ED02
:00000001FF
