:020000040800F2
:100000000806002005010008571F0008531C0008BF
:10001000551F0008C7010008032300080000000066
:100020000000000000000000000000005B1F00084E
:10003000FF01000800000000591F00085D1F0008B4
:100040001F0100081F0100081F0100081F01000810
:100050001F0100081F0100081F0100081F01000800
:100060001F0100081F0100081F0100081F010008F0
:10007000C90100081F0100081F0100081F01000836
:100080001F0100081F0100081F0100081F010008D0
:100090001F0100081F0100081F0100081F010008C0
:1000A0001F0100081F0100081F0100081F010008B0
:1000B0001F010008D91F00081F0100081F010008C8
:1000C0001F0100081F0100081F0100081F01000890
:1000D0001F0100081F0100081F0100081F01000880
:1000E0001F0100081F0100081F010008DFF810D0E1
:1000F00000F02CF80048004711240008AFF30080FE
:10010000080600200648804706480047FEE7FEE74D
:10011000FEE7FEE7FEE7FEE7FEE7FEE7FEE7FEE7B7
:10012000D71F0008ED000008D2B201E000F8012B53
:10013000491EFBD270470022F6E710B513460A4667
:1001400004461946FFF7F0FF204610BD064C074D48
:1001500006E0E06840F0010394E807009847103497
:10016000AC42F6D3FFF7C6FFCC240008EC2400080D
:1001700070B5044600688168C943C90717D1816812
:1001800021F00101816000F0E9FB05460AE000BFB3
:1001900000F0E4FB401B022804D920688068C043BB
:1001A000C00706D020688068C043C007F0D0002098
:1001B00070BDA06A40F01000A062E06A40F001004B
:1001C000E062012070BDFEE7014800F0AFB9000019
:1001D0007801002030B590F840500124AC40C56B48
:1001E0006C60046863604368102B036803D09960F7
:1001F0000068C26030BD9A600068C16030BD704761
:1002000072B6FEE7F8B50024009490F82420254645
:10021000012A12D0012280F824204A681F23072ACD
:100220000DD20668776B521E02EB820293409F4309
:100230000B6893401F43776319E00220F8BD0668FE
:100240000D2A0AD2376BD21F02EB820293409F43E2
:100250000B6893401F43376309E0F76A0D3A02EBDE
:10026000820293409F430B6893401F43F7620A68E2
:10027000072306680A2A0AD3F7680A3A02EB420201
:1002800093409F438B6893401F43F76008E03769B2
:1002900002EB420293409F438B6893401F433761B8
:1002A0000A68102A01D0112A20D1124B02689A4202
:1002B00017D193681B0219D4936843F40003936029
:1002C0000968102912D10C490C4A0968B1FBF2F1F6
:1002D00001EB8101490000E0491E00910029FBD19A
:1002E00004E0816A41F020018162012480F82450F9
:1002F0002046F8BD002401400C00002040420F00C1
:100300002DE9F0414FF0000704003D467ED0A06A81
:10031000002628B9E66284F82460204600F07EF8C2
:100320002046FFF725FFA16AC90600D420B1A06AC4
:1003300040F01000A06269E0A16A21F4885141F008
:100340000201A1626268E169237B0A4347EA430133
:100350000A43A1684FF48077B94209D0012907D038
:100360005FF0000194F814C0BCF1010F02D00AE064
:100370003946F7E7F3B1A36A43F02003A362E36AC7
:1003800043F00103E3622368D3F804C02CF4694C02
:100390004CEA010CC3F804C021688B68DFF870C018
:1003A00003EA0C0313438B60A168B9420BD0012907
:1003B00009D00CE0DFF85CC0A3690CEB43330B43BE
:1003C00043F40061DFE7218A0D05A5F5801521685A
:1003D000CB6A23F470032B43CB62216889680E4BF0
:1003E0001940914208D1E662A16A21F0020141F070
:1003F0000101A162BDE8F081A06A20F0020040F096
:100400001000A062E06A40F00100E0620120F1E724
:10041000FDF7E1FF00E0FFFFFE0E1FFF10B586B005
:1004200000210091019102910391006815498842D1
:1004300026D11548816941F400718161816901F417
:1004400000710491816941F004018161816901F0C9
:1004500004010491816941F00801816180690324EC
:1004600000F008000490F020CDE900046946074838
:1004700000F07EF9009469460548019400F078F98F
:1004800006B010BD002401400010024000080140E9
:10049000000C014010B590F821100024022903D06F
:1004A0000421816301243DE001680A6822F00E0204
:1004B0000A6001680A6822F001020A601A4A0168AB
:1004C000914201D1012121E0174A1432914201D118
:1004D00010211BE0144A2832914201D1891515E000
:1004E000114A3C32914201D189140FE00E4A503238
:1004F000914202D14FF4803108E00B4A64329142BC
:1005000002D14FF4801101E04FF08071064A083AA1
:100510005160012180F82110002180F82010416BEA
:1005200001B18847204610BD080002402DE9F05F68
:10053000C16B0C6801680B68D0F840C0042202FA55
:100540000CF2494DDFF824A1494E4A4FDFF828B19B
:10055000DFF828E122422CD05A072AD50A689206F1
:1005600003D40A6822F004020A600168A94201D19A
:10057000042219E0514501D1402215E0B14202D1D7
:100580004FF4806210E0B94202D14FF480420BE098
:10059000594502D14FF4802206E0714502D14FF453
:1005A000800201E04FF080622F4908394A60C16A39
:1005B0003BE04FF0020808FA0CF818EA040F4FF07D
:1005C00000094FF0010235D05FEA837832D50B681D
:1005D0009B0605D40B6823F00A030B6080F82120EA
:1005E0000168A94201D1022219E0514501D120221E
:1005F00015E0B14202D14FF4007210E0B94202D1CD
:100600004FF400520BE0594502D14FF4003206E09E
:10061000714502D14FF4001201E04FF0007212490F
:1006200008394A6080F82090816A00291AD0BDE814
:10063000F05F0847082505FA0CF5254212D01B0784
:1006400010D50B6823F00E030B6090F84010C36BBD
:1006500002FA01F15960826380F8212080F820902D
:10066000016BE2E7BDE8F09F080002401C00024079
:100670003000024044000240580002406C0002403A
:1006800030B528B308C8134914221944B1FBF2F15C
:100690008900C16310498163022141771A6843F6DA
:1006A000F0718A43D0E900142143D0E902452C437C
:1006B000214304692143446921438469214311434F
:1006C000196000214163012242770177084630BD5D
:1006D000012030BDF8FFFDBF0000024070B50446A8
:1006E00090F82000002501280CD0012084F820007B
:1006F00094F821600020012E06D084F82000022505
:10070000284670BD022070BD022684F82160A063D7
:100710002068066826F0010606602046FFF75AFDAD
:10072000E06A00282068016802D041F00E0106E06E
:1007300021F0040101602068016841F00A010160B4
:100740002068016841F001010160D9E770B50446F5
:1007500000F004F90546601C02D004480078044407
:1007600000F0FCF8401BA042FAD370BD000000204E
:100770002DE9F84FDFF8B8910024A9F1040B2346C6
:100780000F2709F1040AABF1040EC9E00125A540C9
:100790002A40AA427DD1674ED1F804C0ACEB0608CE
:1007A000B44532D014DCBCF1030F3AD009DCBCF103
:1007B000000F2AD0BCF1010F1CD0BCF1020F31D1C7
:1007C0001DE0BCF1110F17D0BCF1120F2AD119E0B6
:1007D000B8F5881F19D006DCB8F5803F15D0B8F5FC
:1007E000801F1FD111E0B8F5001F0ED0B8F5041F0F
:1007F00018D10AE0CB6815E0CB681B1D12E0CB686E
:1008000008330FE0CB680C330CE08B682BB1012B65
:100810004FF0080303D0456104E0042302E00561C2
:1008200000E00023FF2A01D8064601E000F104069B
:100830004FEA840501D9A5F12005D6F8008007FA12
:1008400005FC28EA0C0803FA05F548EA0508C6F88D
:1008500000804D68ED0062D5374DAE6946F0010667
:10086000AE61AD6924F0030605F001050095334D36
:1008700006EB050CDCF80850A607360F07FA06F859
:1008800025EA0805DFF8B880404503D14FF000089D
:1008900017E044E0DFF8AC80404502D14FF001089A
:1008A0000FE0DFF8A480404502D14FF0020808E0D5
:1008B000DFF89880404502D14FF0030801E04FF087
:1008C000040808FA06F848EA0508CCF808804D68DC
:1008D000D9F80060ED024D4601D5164300E096437D
:1008E0002E604D68DAF80060AD02554601D516431A
:1008F00000E096432E604D68DBF80060AD035D4676
:1009000001D5164300E096432E604D68DEF8006086
:10091000ED03754601D5164300E096432E60641C36
:100920000D682A46E5407FF431AFBDE8F88F00003E
:1009300008040140000011100010024000000140B6
:1009400000080140000C014000100140001401406B
:100950000AB1016170470904FBE7000001488068A3
:10096000704700000000002070B5040025D094F806
:100970003D00002520B984F83C50204600F0B8F82E
:10098000242084F83D002068016821F00101016005
:100990002068016841F4004101602068016821F489
:1009A0000041016000F0E0FA4D4A6168914201D8CF
:1009B0004C4900E04C49884201D2012070BD4B49AE
:1009C0002368B0FBF1F15E6826F03F060E435E60DF
:1009D0006368934206D94FF4967359434FF47A7380
:1009E000B1FBF3F12368491C1E6A26F03F06314330
:1009F00019626168914210D84900401EB0FBF1F2C3
:100A0000521CC2F30B02042A01D2042022E0B0FBE4
:100A1000F1F0401CC0F30B001CE0A268F2B301EB44
:100A2000C10303EB0116431EB3FBF6F35B1C43F457
:100A300080431B0549D092B301EBC10202EB0111C7
:100A4000401EB0FBF1F0401CC0F30B0040F48040AE
:100A500040F400402168CA694CF6FF739A43104382
:100A6000C861D4E9071001432068026822F0C0027F
:100A700011430160D4E9030101432068826848F210
:100A8000FF339A4311438160D4E90501084321688B
:100A9000CA6822F0FF021043C86001E00EE016E0D1
:100AA0002068016841F0010101602564202084F87C
:100AB0003D00256384F83E50002070BD01EB4106E7
:100AC000431EB3FBF6F35B1CB3E70120C2E701EB67
:100AD0004101401EB0FBF1F0401CC0F30B00B7E732
:100AE000A086010080841E0000093D0040420F00E6
:100AF00030B585B0002100910191029103911E4D06
:100B000003681E4C122103221D48AB4216D1A36973
:100B100043F00803A361A369039203F0080304935D
:100B2000C023CDE900316946FFF722FEE06940F4B9
:100B30000010E061E06900F4001019E0114DAB42D3
:100B400017D1A36943F00803A361A369039203F0DB
:100B5000080304934FF44063CDE900316946FFF781
:100B600007FEE06940F48000E061E06900F4800085
:100B7000049005B030BD0000005400400010024059
:100B8000000C01400058004002488168027811447E
:100B90008160704700000020074810B5016841F0EF
:100BA00010010160032000F0A1F80F2000F006F80A
:100BB00000F050F8002010BD0020024030B505467E
:100BC0001F4887B0C16941F00201C161C06906A92F
:100BD00000F00200009001A800F0A6F90498B0B15E
:100BE00000F0C2F940001749174AB0FBF1F117486D
:100BF000491E0260416040F2E7320021C0E9032152
:100C00008160816100F0D6FB040003D015E000F0A4
:100C1000ABF9E8E70D4800F029FC04000DD11D20D8
:100C200000F036F8102D07D2002229461D2000F0D2
:100C30003DF80748056000E0012407B0204630BDBC
:100C40000010024040420F0000040040BC010020A0
:100C5000040000200C4808B5816941F00101816160
:100C6000816901F001010091C16941F08051C161C8
:100C7000C06900F0805000900448416821F0E061B4
:100C800041F00071416008BD0010024000000140C9
:100C9000002809DB00F01F0201219140400980007B
:100CA00000F1E020C0F8001170470000F0B40E4BD6
:100CB0001B680C46C3F30223C3F10705042D00D9BA
:100CC0000425191D072901D2002300E0DB1E01269F
:100CD00006FA05F1491E214099409E40761E1640B5
:100CE0003143F0BC01F074BB0CED00E0064900F0AC
:100CF000070208684FF6FF03184040EA0220034A43
:100D000010430860704700000CED00E00000FA0599
:100D10002DE9F84305460078354CC00754D0E0690A
:100D20000026C00008D4E06940F08050E061E0692E
:100D3000012600F0805000902E480168C90512D4A9
:100D40000168804641F480710160FFF707FE0746A5
:100D500005E000BFFFF702FEC01B642823D8D8F8C7
:100D60000000C005F6D5206A10F4407021D0A98893
:100D700001F4407181421CD0206A1F49012220F4F5
:100D800040700A6000220A602062C00711D0FFF79D
:100D9000E5FD074641F2883808E000BFFFF7DEFDB9
:100DA000C11B414502D90320BDE8F883206A8007B2
:100DB000F4D5206A696820F44070084320621EB1AF
:100DC000E06920F08050E0612878800705D56068F0
:100DD000A96820F44040084360602878C00605D523
:100DE0006068E96820F48000084360600020DBE769
:100DF0000010024000700040400442422DE9F047DC
:100E00000F46050061D0434E306800F00700B8423D
:100E100009D2306820F0070038433060306800F0B5
:100E20000700B84251D128683B4C810712D54007D2
:100E300003D5606840F4E06060602878000703D55F
:100E4000606840F4605060606068A96820F0F0005D
:100E5000084360602878C00728D06868012810D04F
:100E60002168022810D0890700292EDA616821F054
:100E7000030101436160FFF771FD804641F288394B
:100E80000DE021688903EFE78901EDE7FFF766FDD3
:100E9000A0EB0801494502D90320BDE8F08760684E
:100EA000696800F00C00B0EB810FEFD1306800F002
:100EB0000700B8420BD9306820F007003843306093
:100EC000306800F00700B84201D00120E5E728783B
:100ED000400705D56068E96820F4E0600843606079
:100EE0002878000706D56068296920F4605040EA38
:100EF000C100606000F048F86168084AC1F303115E
:100F0000515CC8400649086006480068FFF756FE75
:100F10000020C2E70020024000100240B224000876
:100F20000C000020040000200F2202600C4A5368CD
:100F300003F003034360536803F0F00383605368D6
:100F400003F4E063C36052684FF4E06303EAD20243
:100F500002610448006800F0070008607047000064
:100F6000001002400020024004480549006849681A
:100F7000044AC1F30221515CC84070470C000020B4
:100F800000100240C22400080E4A51680E4801F0C9
:100F90000C03042B11D0082B0FD10C48C1F3834351
:100FA000C903C05C0AD55168084AC1F34041921E8A
:100FB000515C054A5043B0FBF1F070470449484387
:100FC000704700000010024000127A00A2240008BE
:100FD00000093D002DE9F84F040070D02078C04D85
:100FE000C00749D06868C0F38100012807D068684D
:100FF000C0F38100022809D16868C00306D52868BB
:10100000800339D560680028E7D035E06068B0F526
:10101000803F0BD010B1B0F5A02F11D0286820F47C
:1010200080302860286820F4802002E0286840F49E
:1010300080302860606890B1FFF790FC06460AE0B7
:10104000286840F480202860F0E700BFFFF786FCA6
:10105000801B642873D828688003F7D50CE0FFF75D
:101060007DFC064605E000BFFFF778FC801B642886
:10107000F0D828688003F7D420789A4E80074FF084
:1010800001094FF0000839D5686810F00C0F07D03F
:101090006868C0F38100022809D16868C00306D4DB
:1010A0002868800714D52069012808D110E020693C
:1010B000B0B1C6F80090FFF751FC074605E00AE121
:1010C000FFF74CFCC01B0228C4D828688007F7D55E
:1010D0002868616920F0F80040EAC10028600DE04E
:1010E000C6F80080FFF73AFC074604E0FFF736FC3D
:1010F000C01B022823D828688007F7D4207800076F
:101100002CD57948A169D9B1C0F80090FFF726FC29
:10111000074604E0FFF722FCC01B02280FD8686ACC
:101120008007F7D571484FF4FA510068B0FBF1F031
:10113000009000BF0098411E0091FAD20EE080E0BE
:10114000C0F80080FFF70AFC074604E0FFF706FC42
:10115000C01B022875D8686A8007F7D4207840073A
:1011600060D5E8690027C00008D4E86940F08050E5
:10117000E861E869012700F0805000905C48016850
:10118000C90513D40168834641F480710160FFF7FB
:10119000E5FB824606E000BFFFF7E0FBA0EB0A009C
:1011A00064284ED8DBF80000C005F5D5E0680128BA
:1011B0000AD008B1052813D0286A20F0010028625F
:1011C000286A20F0040002E0286A40F0010028624A
:1011D000E06841F2883B98B1FFF7C0FB82460BE024
:1011E000286A40F004002862EEE700BFFFF7B6FB74
:1011F000A0EB0A0159455AD8286A8007F6D50CE0B9
:10120000FFF7ACFB824605E0FFF7A8FBA0EB0A0165
:1012100059454CD8286A8007F6D41FB1E86920F0F8
:101220008050E861E06988B36968C1F381010229EF
:1012300044D00228C6F8608004D0FFF78FFB044634
:1012400038E034E0FFF78AFB074604E0FFF786FB4F
:10125000C01B02282BD828688001F7D4206AB0F57B
:10126000803F05D16868A16820F4003008436860B9
:10127000D4E908010843696821F4741108436860DF
:10128000C6F86090FFF76AFB044606E025E000BF61
:10129000FFF764FB001B022809D828688001F7D5F6
:1012A0001BE000BFFFF75AFB001B022802D90320F6
:1012B000BDE8F88F28688001F4D40EE00128F7D04B
:1012C0006868226A00F48031914204D1616A00F4B6
:1012D0007010884201D00120EAE70020E8E7000012
:1012E0000010024000004242800442420C000020F4
:1012F000007000407047704710B590F83C20012AFC
:1013000022D0012280F83C20CA688C6822F4407206
:1013100022434C6822F4806222430C6822F400626B
:1013200022430C6922F4805222434C6922F4005279
:101330002243C969002322F480420A4301684A64B7
:1013400080F83C30002010BD022010BD70B590F830
:101350003C20012A26D0012480F83C40022280F85B
:101360003D2003685A689D6822F070060A6832437F
:101370005A600D4B02689A4208D0B2F1804F05D0F6
:101380000A4B9A4202D00A4B9A4204D1496825F08E
:1013900080031943916080F83D40002180F83C10A3
:1013A000084670BD022070BD002C014000040040C2
:1013B0000008004010B5040003D094F83D0010B1BF
:1013C00007E0012010BD002084F83C00204600F01A
:1013D0001FF8022084F83D00211D206800F002FE65
:1013E000012084F8460084F83E0084F83F0084F829
:1013F000400084F8410084F8420084F8430084F8F7
:10140000440084F8450084F83D00002010BD000031
:1014100000B585B00021009101910291039100680F
:101420000F4988421AD10F48C16941F00401C161D6
:10143000C16901F004010491816941F008018161F1
:101440008069694600F0080004904FF40070009035
:101450000220019003900448FFF78AF905B000BD0F
:101460000008004000100240000C014090F83D10C0
:10147000012901D001207047022180F83D10016848
:10148000CA6842F00102CA6000680B49884208D06D
:10149000B0F1804F05D00949884202D008498842FE
:1014A00004D1816801F00701062903D0016841F0E9
:1014B0000101016000207047002C01400004004041
:1014C0000008004070B5044690F83C000025012853
:1014D00017D0012684F83C60022084F83D00206883
:1014E000826822F0770222F47F42826008685028E6
:1014F00038D00DDC20284FD005DC90B3102811D156
:101500004AE0022070BD302846D040280AD13BE096
:1015100060282FD070280DD0B0F5805F03D0B0F5D3
:10152000005F12D0012584F83D60002084F83C0063
:10153000284670BDCB68D1E90121206800F00AFE81
:101540002068816841F0770109E0CB68D1E9012189
:10155000206800F0FFFD2068816841F480418160CF
:10156000E1E719E0CA684968206800F0A7FE502149
:10157000206806E0CA684968206800F0B0FE602173
:10158000206800F0F1FDCEE7CA684968206800F0E5
:1015900095FE40212068F4E7226801461046F0E7F6
:1015A0007047704770B50446006801694FF0000548
:1015B000C943890715D4C168C943890711D4E91EF5
:1015C000016101202077206880698007204602D0D1
:1015D000FFF7E7FF04E000F0D3F8204600F0ACF995
:1015E000257720680169C943490717D4C168C943F1
:1015F000490713D46FF004010161022020772068AD
:10160000806910F4407F204602D0FFF7CAFF04E053
:1016100000F0B6F8204600F08FF9257720680169C0
:10162000C943090716D4C168C943090712D46FF02A
:1016300008010161042020772068C06980072046E6
:1016400002D0FFF7AEFF04E000F09AF8204600F069
:1016500073F9257720680169C943C90617D4C168A1
:10166000C943C90613D46FF0100101610820207727
:101670002068C06910F4407F204602D0FFF791FF38
:1016800004E000F07DF8204600F056F92577206848
:101690000169C943C90708D1C168C943C90704D151
:1016A000891E0161204600F0C9FA20680169C9431A
:1016B000090609D4C168C943090605D46FF0800141
:1016C00001612046FFF716FE20680169C9434906FB
:1016D00009D4C168C943490605D46FF040010161CE
:1016E000204600F0B5FA20680169C94389060BD489
:1016F000C168C943890607D46FF020010161204603
:10170000BDE87040FFF7F7BD70BD000010B586B0B2
:101710000021009101910291039103681448134C38
:1017200082150221A3420DD1836943F00403836132
:101730008069CDE9002100F00400CDE9031069467D
:101740000C480FE00C4CA3420ED1836943F0080310
:1017500083618069CDE9002100F00800CDE9031024
:1017600069460648FFF704F806B010BD002C01409A
:10177000001002400008014000080040000C014039
:10178000704770B5044690F83C0000260D460128CD
:101790000FD0012084F83C006AB1042A1DD0082A29
:1017A0002FD00C2A3FD00126002084F83C00304680
:1017B00070BD022070BD206800F0DEFC20688169E9
:1017C00041F0080181612068816921F00401816193
:1017D000206881692A69114311E0206800F0F4FC57
:1017E0002068816941F4006181612068816921F488
:1017F00080618161206881692A6941EA02218161F1
:10180000D2E7206800F00CFD2068C16941F00801B2
:10181000C1612068C16921F00401C1612068C1690A
:101820002A69114311E0206800F026FD2068C16993
:1018300041F40061C1612068C16921F48061C16126
:101840002068C1692A6941EA0221C161ACE710B58B
:10185000040003D094F83D0010B107E0012010BD52
:10186000002084F83C00204600F01EF8022084F896
:101870003D00211D206800F0B5FB012084F84600E2
:1018800084F83E0084F83F0084F8400084F841006A
:1018900084F8420084F8430084F8440084F845004A
:1018A00084F83D00002010BDF0B585B00026054647
:1018B000009601960296039600681A4988422FD135
:1018C0001949886940F400608861886900F4006003
:1018D0000490886940F00400886188690F1500F061
:1018E000040004900220CDE90070039069460F487F
:1018F000FEF73EFF0F4C0E4820601020C4E90106A1
:101900008020E0604000C4E904072020C4E9060606
:101910002046FEF7B5FE08B1FEF772FC6C62656208
:1019200005B0F0BD002C014000100240000801404D
:101930001C000240780100200021014800F01CB981
:10194000E80000207047000010B50446022249B1AB
:1019500004290ED0082913D094F84100012816D08C
:10196000012010BD94F83E000128F9D184F83E20F2
:101970000FE094F83F000128F2D184F83F2008E0FE
:1019800094F840000128EBD184F8402001E084F86D
:1019900041200122206800F05BFB0F49206888424B
:1019A00003D1426C42F4004242642068884208D06D
:1019B000B0F1804F05D00949884202D008498842D9
:1019C00004D1816801F00701062903D0016841F0C4
:1019D00001010160002010BD002C01400004004006
:1019E000000800402DE9F04117460D0004464FF075
:1019F00000060CD0042D11D0082D16D094F841000B
:101A0000022819D094F84100012818D07CE094F8FD
:101A10003E00022810D094F83E00F5E794F83F000D
:101A2000022809D094F83F00EEE794F8400002281D
:101A300002D094F84000E7E70220BDE8F081002FD3
:101A400062D0002B60D04649464ADFF81CC1022014
:101A50004DB1042D18D0082D27D084F841000C2D4D
:101A600044D0012679E084F83E00606A8162606AB1
:101A70003946C262606AC0F830C02268606A343297
:101A8000FEF72CFE88BB21E084F83F00A06A81624B
:101A9000A06A3946C262A06AC0F830C02268A06A53
:101AA0003832FEF71BFE00BB15E084F84000E06A08
:101AB0008162E06A3946C262E06AC0F830C02268DA
:101AC000E06A3C32FEF70AFE78B909E02068C16896
:101AD00041F400711EE02068C16841F4806119E0A2
:101AE0002068C16841F4006114E00DE0206B816260
:101AF000206B3946C262206BC0F830C02268206B70
:101B00004032FEF7EBFD08B1012096E72068C1687E
:101B100041F48051C16001222946206800F098FA02
:101B200012492068884203D1426C42F40042426468
:101B30002068884208D0B0F1804F05D00C49884217
:101B400002D00C49884204D1816801F007010629BE
:101B500003D0016841F00101016030466DE70000EB
:101B60006B200008C920000801210008002C01405A
:101B7000000400400008004070B50D0004464FF01E
:101B8000000607D0042D0CD0082D11D00C2D16D036
:101B9000012645E02068C16821F40071C160606AD7
:101BA00013E02068C16821F48061C160A06A0CE084
:101BB0002068C16821F40061C160E06A05E0206826
:101BC000C16821F48051C160206BFEF763FC0022E4
:101BD0002946206800F03CFA174B41F211112068A9
:101BE0008A10984209D1036A0B4206D1036A134254
:101BF00003D1436C23F4004343642068036A0B421F
:101C000006D1016A114203D1016821F0010101608E
:101C100001203DB1042D08D0082D09D084F84100E1
:101C2000304670BD84F83E00FAE784F83F00F7E7DD
:101C300084F84000F4E70000002C014000680349EC
:101C4000884201D1FEF7A0BF7047000000040040A9
:101C50007047FEE73EB500241148009401940294B9
:101C60000E498460016004730475012505614FF419
:101C700060214460C161FEF743FB08B1FEF7C0FA82
:101C80000620CDE90005694602940548FEF7BAFA38
:101C9000002801D0FEF7B4FA3EBD00000024014048
:101CA00010000020094808B5416941F00101416177
:101CB0004069002200F00100009011460C20FEF760
:101CC000F5FFBDE808400C20FEF7E2BF001002401F
:101CD0002DE9F04786B000242D4800940194029429
:101CE0000394816941F010018161816901F0100163
:101CF0000491816941F020018161816901F0200135
:101D00000491816941F004018161816901F004015C
:101D10000491816941F0080181618069DFF8748074
:101D200000F008004FF40055049000222946404678
:101D3000FEF70EFEDFF860904FF4C05700223946E0
:101D40004846FEF705FEDFF854A000223821504631
:101D5000FEF7FEFD0095022601250396CDE901540C
:101D600069464046FEF704FD00970396CDE901540D
:101D700069464846FEF7FCFC3820CDE90005CDE970
:101D8000024669465046FEF7F3FC06B0BDE8F08710
:101D9000001002400010014000080140000C01400A
:101DA0000D4810B50B4901600C49416000214FF40A
:101DB00080428160C0E9031241618161C1610162B9
:101DC000FEF7D2FD002803D0BDE81040FEF718BA98
:101DD00010BD00000054004040000020A08601001B
:101DE0000D4810B50B4901600C49416000214FF4CA
:101DF00080428160C0E9031241618161C161016279
:101E0000FEF7B2FD002803D0BDE81040FEF7F8B998
:101E100010BD00000058004094000020A086010082
:101E200010B592B000240F941C2108A81094FEF75E
:101E300082F920216846FEF77EF91F481D49C0E956
:101E400000145921C0E90241046144618461FFF733
:101E5000FEFC08B1FEF7D4F90F940FA916481094B0
:101E6000FFF774FA08B1FEF7CBF96020CDE908045A
:101E70000A940B940C940D94002208A90E480E9419
:101E8000FFF77FFC08B1FEF7BBF900944FF4005058
:101E9000CDE90440029401940394694606480794EE
:101EA000FFF72AFA08B1FEF7ABF90348FFF72EFC5B
:101EB00012B010BD002C0140E800002010B58EB01B
:101EC00000240794089409940A940B941C216846F2
:101ED0000C94FEF730F91E481C4901604721C0E907
:101EE00001146321C0E903148461FFF763FA08B1A8
:101EF000FEF786F94FF48050079007A91448FFF7C2
:101F0000E1FA08B1FEF77CF91148FFF7A0FC08B12F
:101F1000FEF776F90B940BA90D480C94FFF716FA0F
:101F200008B1FEF76DF96020CDE9000402940822A3
:101F3000694607480494FFF724FC08B1FEF760F9EE
:101F40000348FFF7E3FB0EB010BD0000000800409F
:101F500030010020FEE7FEE770477047704730B55C
:101F600093B028216846FEF7E6F814210AA8FEF788
:101F7000E2F8002501200F951095119501041295A6
:101F80008DE8230004904FF4E010CDE908100224FE
:101F900007946846FFF71EF808B172B6FEE70AA973
:101FA0000F2081E831004FF48060CDE90D0502215A
:101FB0000AA8FEF723FF08B172B6FEE74FF400400F
:101FC00011900F940FA8FEF7A3FE002801D072B65F
:101FD000FEE713B030BD70470148FFF7E3BA0000D9
:101FE000BC010020F0B50268164B174C174D4FF09E
:101FF0008047984205D0B84203D0A04201D0A84201
:1020000003D122F070064A683243984205D0B842A4
:1020100003D0A04201D0A84203D122F44074CA6880
:1020200022434C6922F08002224302608A68C26225
:102030000A688262984201D1096901630121416104
:10204000F0BD0000002C01400004004000080040EA
:1020500010B501F01F030121046A99408C4304620A
:10206000016A9A401143016210BD10B5446A012112
:10207000626A824205D121778069F8B984F83E10FE
:102080001CE0A26A824206D1022222778069A8B9A6
:1020900084F83F1012E0E26A824206D104222277DD
:1020A000806958B984F8401008E0226B824205D15B
:1020B00008222277806908B984F841102046FFF78A
:1020C0003BFC0020207710BD10B5446A616A814254
:1020D00001D101200DE0A16A814201D1022008E076
:1020E000E16A814201D1042003E0216B814201D1E8
:1020F000082020772046FFF725FC0020207710BD20
:1021000010B5446A0121626A824203D1217784F8C2
:102110003E1019E0A26A824204D10220207784F89E
:102120003F1011E0E26A824204D10420207784F853
:10213000401009E0226B824204D10820207784F805
:10214000411001E084F83D102046FFF729FA0020F5
:10215000207710BD10B5846842EA032224F47F443E
:102160000A432243826010BD826822F070020A4353
:1021700042F007018160704730B5036A026A22F0BD
:10218000010202624268846924F073050C682C43E2
:1021900023F002058B682B430A4DA8420BD123F094
:1021A0000805CB6822F440722B434D6923F00403E9
:1021B00015438A692A434260846149684163036226
:1021C00030BD0000002C014030B5026A036A23F0E4
:1021D00010030362436884690D6824F4E64444EA0A
:1021E00005248D6822F0200242EA05120B4DA84218
:1021F0000ED1CD6822F0800242EA05124D6923F427
:10220000406343EA85038D6922F0400243EA850377
:102210004360846149688163026230BD002C0140E3
:1022200030B5036A026A22F4807202624268C469AD
:1022300023F4007324F073050C682C438D6843EA83
:1022400005230C4DA8420ED1CD6823F4006343EA68
:1022500005234D6922F4405242EA05128D6923F4A8
:10226000806342EA05124260C4614968C163036247
:1022700030BD0000002C014030B5046A026A22F42F
:10228000805202624268C3690D6823F4E64343EA60
:1022900005238D6824F4005444EA0534064DA84211
:1022A00004D14D6922F4804242EA85124260C36142
:1022B00049680164046230BD002C014010B5036A16
:1022C000046A24F001040462846924F0F00444EAFE
:1022D000021423F00A020A438461026210BD10B5A1
:1022E000036A046A24F010040462846923F0A003E2
:1022F00024F4704444EA023243EA0111826101622B
:1023000010BDFEE72DE9F043ADF5697D0F460646A9
:10231000994690464FF468716846FDF70CFF00211E
:1023200031B1012907D0022908D003290BD108E0D7
:10233000344628AD07E03C4634AD04E0444640ADA9
:1023400001E04C464CAD00225FF0000004FA00F3BF
:102350001B0201D5402300E0242305EB400C401C68
:10236000C0B2ACF810300828F0D3082004FA00F30B
:102370001B0201D5402300E0242305EB400C401C48
:10238000C0B22CF8103C1028F0D3102004FA00F34F
:102390001B0201D5402300E0242325F81030401C07
:1023A000C0B21828F2D3521CD2B2082ACCD3491C8E
:1023B000C9B20429B4D3B0236A4600210348FFF709
:1023C00011FB0DF5697DBDE8F0830000E8000020F9
:1023D0000907090E002804DB00F1E02080F8001452
:1023E000704700F00F0000F1E02080F8141D7047E6
:1023F00002E008C8121F08C1002AFAD170477047CE
:10240000002001E001C1121F002AFBD1704700002B
:10241000FEF7C2FBFFF7A3FDFFF75AFCFFF742FCF4
:10242000FFF7BEFCFFF716FCFFF7DAFCFFF7F8FC3E
:10243000FFF744FD08211848FFF786FA08211748DE
:10244000FFF782FA4FF4C05425024FF4FA760023C6
:10245000182221462846FFF755FF3046FEF776F949
:102460001823224629460020FFF74CFF3046FEF78E
:102470006DF923462A4600211820FFF743FF304616
:10248000FEF764F92B46002218212046FFF73AFF99
:102490003046FEF75BF9DAE7E80000203001002063
:1024A000010202030405060708090A0B0C0D0E0FB2
:1024B00010100000000000000000010203040607E5
:1024C000080900000000010203040000EC240008D9
:1024D0000000002010000000F0230008FC24000889
:1024E00010000020F8050000002400080100000092
:0C24F00010000000000000000024F400B8
:04000005080000ED02
:00000001FF
