:020000040800F2
:100000002808002089010008B31A0008AF1700086B
:10001000B11A0008E7020008771D00080000000080
:10002000000000000000000000000000B71A0008F7
:10003000E902000800000000B51A0008B91A00081B
:10004000A3010008A3010008A3010008A301000800
:10005000A3010008A3010008A3010008A3010008F0
:10006000A3010008A3010008A3010008A3010008E0
:10007000A3010008A3010008A3010008A3010008D0
:10008000A3010008A3010008A3010008A3010008C0
:10009000A3010008A3010008A3010008A3010008B0
:1000A000A3010008A3010008A3010008A3010008A0
:1000B000A3010008351B0008A3010008A3010008E4
:1000C000A3010008A3010008A3010008A301000880
:1000D000A3010008A3010008A3010008A301000870
:1000E000A3010008A3010008A301000800F002F822
:1000F00000F03AF80AA090E8000C82448344AAF188
:100100000107DA4501D100F02FF8AFF2090EBAE885
:100110000F0013F0010F18BFFB1A43F0010318473B
:10012000441D0000641D0000103A24BF78C878C147
:10013000FAD8520724BF30C830C144BF04680C60ED
:10014000704700000023002400250026103A28BF35
:1001500078C1FBD8520728BF30C148BF0B60704739
:100160001FB51FBD10B510BD00F058F81146FFF7C0
:10017000F7FF01F011FE00F076F803B4FFF7F2FF8D
:1001800003BC00F07DF8000009488047094800479B
:10019000FEE7FEE7FEE7FEE7FEE7FEE7FEE7FEE737
:1001A000FEE7FEE704480549054A064B7047000094
:1001B000331B0008ED00000828020020280800205A
:1001C00028040020280400204FF0000200B5134648
:1001D00094469646203922BFA0E80C50A0E80C5067
:1001E000B1F12001BFF4F7AF090728BFA0E80C5018
:1001F00048BF0CC05DF804EB890028BF40F8042B11
:1002000008BF704748BF20F8022B11F0804F18BF7D
:1002100000F8012B7047704770477047754600F033
:100220002BF8AE4605006946534620F00700854688
:1002300018B020B5FFF7B6FFBDE820404FF000062C
:100240004FF000074FF000084FF0000B21F00701BE
:10025000AC46ACE8C009ACE8C009ACE8C009ACE801
:10026000C0098D46704710B50446AFF300802046A4
:10027000BDE81040FFF781BF00487047C40100206F
:1002800001491820ABBEFEE72600020070470000BF
:1002900070B5044600688168C943C90717D18168F1
:1002A00021F00101816000F073FA05460AE000BF09
:1002B00000F06EFA401B022804D920688068C04311
:1002C000C00706D020688068C043C007F0D0002077
:1002D00070BDA06A40F01000A062E06A40F001002A
:1002E000E062012070BDFEE7704772B6FEE70000D5
:1002F000F8B50024009490F824202546012A12D055
:10030000012280F824204A681F23072A0DD206689C
:10031000776B521E02EB820293409F430B6893401F
:100320001F43776319E00220F8BD06680D2A0AD240
:10033000376BD21F02EB820293409F430B689340BE
:100340001F43376309E0F76A0D3A02EB82029340DC
:100350009F430B6893401F43F7620A6807230668B0
:100360000A2A0AD3F7680A3A02EB420293409F43F3
:100370008B6893401F43F76008E0376902EB420245
:1003800093409F438B6893401F4337610A68102A4C
:1003900001D0112A20D1124B02689A4217D19368DA
:1003A0001B0219D4936843F4000393600968102971
:1003B00012D10C490C4A0968B1FBF2F101EB810141
:1003C000490000E0491E00910029FBD104E0816A48
:1003D00041F020018162012480F824502046F8BDBC
:1003E000002401401000002040420F002DE9F041A0
:1003F0004FF0000704003D467ED0A06A002628B9D1
:10040000E66284F82460204600F07EF82046FFF77C
:100410003FFFA16AC90600D420B1A06A40F01000D5
:10042000A06269E0A16A21F4885141F00201A16251
:100430006268E169237B0A4347EA43010A43A168F2
:100440004FF48077B94209D0012907D05FF000014D
:1004500094F814C0BCF1010F02D00AE03946F7E766
:10046000F3B1A36A43F02003A362E36A43F00103FC
:10047000E3622368D3F804C02CF4694C4CEA010C05
:10048000C3F804C021688B68DFF870C003EA0C036E
:1004900013438B60A168B9420BD0012909D00CE04D
:1004A000DFF85CC0A3690CEB43330B4343F40061FA
:1004B000DFE7218A0D05A5F580152168CB6A23F4B5
:1004C00070032B43CB62216889680E4B194091421F
:1004D00008D1E662A16A21F0020141F00101A162A6
:1004E000BDE8F081A06A20F0020040F01000A06298
:1004F000E06A40F00100E0620120F1E7FDF7E1FF72
:1005000000E0FFFFFE0E1FFF10B586B00021009136
:1005100001910291039100681549884226D115483E
:10052000816941F400718161816901F40071049174
:10053000816941F004018161816901F00401049144
:10054000816941F0080181618069032400F008009D
:100550000490F020CDE900046946074800F022F835
:10056000009469460548019400F01CF806B010BDDF
:10057000002401400010024000080140000C01402E
:1005800070B5044600F004F90546601C02D004482A
:100590000078044400F0FCF8401BA042FAD370BD80
:1005A000040000202DE9F84FDFF8B8910024A9F1EC
:1005B000040B23460F2709F1040AABF1040EC9E02E
:1005C0000125A5402A40AA427DD1674ED1F804C03A
:1005D000ACEB0608B44532D014DCBCF1030F3AD0C2
:1005E00009DCBCF1000F2AD0BCF1010F1CD0BCF11A
:1005F000020F31D11DE0BCF1110F17D0BCF1120F69
:100600002AD119E0B8F5881F19D006DCB8F5803F6B
:1006100015D0B8F5801F1FD111E0B8F5001F0ED01E
:10062000B8F5041F18D10AE0CB6815E0CB681B1D94
:1006300012E0CB6808330FE0CB680C330CE08B681A
:100640002BB1012B4FF0080303D0456104E00423D4
:1006500002E0056100E00023FF2A01D8064601E020
:1006600000F104064FEA840501D9A5F12005D6F86A
:10067000008007FA05FC28EA0C0803FA05F548EAA9
:100680000508C6F800804D68ED0062D5374DAE69AB
:1006900046F00106AE61AD6924F0030605F00105E0
:1006A0000095334D06EB050CDCF80850A607360F15
:1006B00007FA06F825EA0805DFF8B880404503D1B7
:1006C0004FF0000817E044E0DFF8AC80404502D16D
:1006D0004FF001080FE0DFF8A480404502D14FF051
:1006E000020808E0DFF89880404502D14FF0030887
:1006F00001E04FF0040808FA06F848EA0508CCF8CB
:1007000008804D68D9F80060ED024D4601D51643CA
:1007100000E096432E604D68DAF80060AD02554661
:1007200001D5164300E096432E604D68DBF800606B
:10073000AD035D4601D5164300E096432E604D683B
:10074000DEF80060ED03754601D5164300E09643E0
:100750002E60641C0D682A46E5407FF431AFBDE889
:10076000F88F000008040140000011100010024042
:100770000000014000080140000C01400010014051
:10078000001401400AB1016170470904FBE7000051
:1007900001488068704700000400002070B5040024
:1007A00025D094F83D00002520B984F83C5020461F
:1007B00000F0B8F8242084F83D002068016821F09A
:1007C000010101602068016841F400410160206876
:1007D000016821F40041016000F0E0FA4D4A6168CF
:1007E000914201D84C4900E04C49884201D2012095
:1007F00070BD4B492368B0FBF1F15E6826F03F06FF
:100800000E435E606368934206D94FF49673594372
:100810004FF47A73B1FBF3F12368491C1E6A26F08A
:100820003F06314319626168914210D84900401E69
:10083000B0FBF1F2521CC2F30B02042A01D20420D5
:1008400022E0B0FBF1F0401CC0F30B001CE0A268FA
:10085000F2B301EBC10303EB0116431EB3FBF6F346
:100860005B1C43F480431B0549D092B301EBC102EA
:1008700002EB0111401EB0FBF1F0401CC0F30B0075
:1008800040F4804040F400402168CA694CF6FF7390
:100890009A431043C861D4E90710014320680268F5
:1008A00022F0C00211430160D4E903010143206832
:1008B000826848F2FF339A4311438160D4E905010D
:1008C00008432168CA6822F0FF021043C86001E0B3
:1008D0000EE016E02068016841F001010160256426
:1008E000202084F83D00256384F83E50002070BD30
:1008F00001EB4106431EB3FBF6F35B1CB3E701209B
:10090000C2E701EB4101401EB0FBF1F0401CC0F317
:100910000B00B7E7A086010080841E0000093D009F
:1009200040420F0030B585B0002100910191029145
:1009300003911E4D03681E4C122103221D48AB4239
:1009400016D1A36943F00803A361A369039203F0DE
:1009500008030493C023CDE900316946FFF722FE66
:10096000E06940F40010E061E06900F4001019E073
:10097000114DAB4217D1A36943F00803A361A369EA
:10098000039203F0080304934FF44063CDE9003170
:100990006946FFF707FEE06940F48000E061E06926
:1009A00000F48000049005B030BD00000054004009
:1009B00000100240000C01400058004002488168CD
:1009C000027811448160704704000020074810B588
:1009D000016841F010010160032000F0A1F80F2030
:1009E00000F006F800F050F8002010BD0020024092
:1009F00030B505461F4887B0C16941F00201C161A9
:100A0000C06906A900F00200009001A800F0A6F954
:100A10000498B0B100F0C2F940001749174AB0FB82
:100A2000F1F11748491E0260416040F2E7320021AF
:100A3000C0E903218160816100F0D6FB040003D08E
:100A400015E000F0ABF9E8E70D4800F037FC0400D2
:100A50000DD11D2000F036F8102D07D200222946B6
:100A60001D2000F03DF80748056000E0012407B0B4
:100A7000204630BD0010024040420F0000040040FC
:100A80007C010020080000200C4808B5816941F075
:100A900001018161816901F001010091C16941F0A9
:100AA0008051C161C06900F08050009004484168E5
:100AB00021F0E06141F00071416008BD001002408A
:100AC00000000140002809DB00F01F0201219140D5
:100AD0004009800000F1E020C0F8001170470000DC
:100AE000F0B40E4B1B680C46C3F30223C3F1070599
:100AF000042D00D90425191D072901D2002300E087
:100B0000DB1E012606FA05F1491E214099409E4050
:100B1000761E16403143F0BC01F02EB90CED00E01A
:100B2000064900F0070208684FF6FF03184040EA44
:100B30000220034A10430860704700000CED00E0FB
:100B40000000FA052DE9F84305460078354CC0074A
:100B500054D0E0690026C00008D4E06940F080501D
:100B6000E061E069012600F0805000902E480168A5
:100B7000C90512D40168804641F480710160FFF715
:100B800007FE074605E000BFFFF702FEC01B642812
:100B900023D8D8F80000C005F6D5206A10F44070BC
:100BA00021D0A98801F4407181421CD0206A1F49DC
:100BB000012220F440700A6000220A602062C0070F
:100BC00011D0FFF7E5FD074641F2883808E000BF85
:100BD000FFF7DEFDC11B414502D90320BDE8F883C4
:100BE000206A8007F4D5206A696820F440700843C1
:100BF00020621EB1E06920F08050E0612878800713
:100C000005D56068A96820F44040084360602878F2
:100C1000C00605D56068E96820F48000084360607C
:100C20000020DBE700100240007000404004424218
:100C30002DE9F0470F46050061D0434E306800F0C3
:100C40000700B84209D2306820F00700384330600E
:100C5000306800F00700B84251D128683B4C81074A
:100C600012D5400703D5606840F4E06060602878E2
:100C7000000703D5606840F4605060606068A96850
:100C800020F0F000084360602878C00728D068682A
:100C9000012810D02168022810D0890700292EDAF7
:100CA000616821F0030101436160FFF771FD804637
:100CB00041F288390DE021688903EFE78901EDE70A
:100CC000FFF766FDA0EB0801494502D90320BDE806
:100CD000F0876068696800F00C00B0EB810FEFD11D
:100CE000306800F00700B8420BD9306820F00700E8
:100CF00038433060306800F00700B84201D001206E
:100D0000E5E72878400705D56068E96820F4E060E9
:100D1000084360602878000706D56068296920F4D8
:100D2000605040EAC100606000F048F86168084A1D
:100D3000C1F30311515CC8400649086006480068C9
:100D4000FFF756FE0020C2E70020024000100240DC
:100D50004A1E000810000020080000200F22026038
:100D60000C4A536803F003034360536803F0F00335
:100D70008360536803F4E063C36052684FF4E06338
:100D800003EAD20202610448006800F0070008602C
:100D9000704700000010024000200240044805494E
:100DA00000684968044AC1F30221515CC840704799
:100DB00010000020001002405A1E00080E4A516820
:100DC0000E4801F00C03042B11D0082B0FD10C4856
:100DD000C1F38343C903C05C0AD55168084AC1F313
:100DE0004041921E515C054A5043B0FBF1F0704700
:100DF00004494843704700000010024000127A0086
:100E00003A1E000800093D002DE9F84F040070D09B
:100E10002078C04DC00749D06868C0F38100012820
:100E200007D06868C0F38100022809D16868C00350
:100E300006D52868800339D560680028E7D035E0FA
:100E40006068B0F5803F0BD010B1B0F5A02F11D085
:100E5000286820F480302860286820F4802002E090
:100E6000286840F480302860606890B1FFF790FCFB
:100E700006460AE0286840F480202860F0E700BFBA
:100E8000FFF786FC801B642873D828688003F7D599
:100E90000CE0FFF77DFC064605E000BFFFF778FC9D
:100EA000801B6428F0D828688003F7D420789A4EF5
:100EB00080074FF001094FF0000839D5686810F03D
:100EC0000C0F07D06868C0F38100022809D1686858
:100ED000C00306D42868800714D52069012808D1EA
:100EE00010E02069B0B1C6F80090FFF751FC07464A
:100EF00005E00AE1FFF74CFCC01B0228C4D82868B3
:100F00008007F7D52868616920F0F80040EAC10041
:100F100028600DE0C6F80080FFF73AFC074604E0C1
:100F2000FFF736FCC01B022823D828688007F7D4B7
:100F3000207800072CD57948A169D9B1C0F8009074
:100F4000FFF726FC074604E0FFF722FCC01B02283F
:100F50000FD8686A8007F7D571484FF4FA510068D6
:100F6000B0FBF1F0009000BF0098411E0091FAD252
:100F70000EE080E0C0F80080FFF70AFC074604E0BE
:100F8000FFF706FCC01B022875D8686A8007F7D4F3
:100F90002078400760D5E8690027C00008D4E869D8
:100FA00040F08050E861E869012700F0805000902F
:100FB0005C480168C90513D40168834641F4807117
:100FC0000160FFF7E5FB824606E000BFFFF7E0FBAC
:100FD000A0EB0A0064284ED8DBF80000C005F5D568
:100FE000E06801280AD008B1052813D0286A20F04B
:100FF00001002862286A20F0040002E0286A40F01C
:1010000001002862E06841F2883B98B1FFF7C0FB1D
:1010100082460BE0286A40F004002862EEE700BF39
:10102000FFF7B6FBA0EB0A0159455AD8286A80079A
:10103000F6D50CE0FFF7ACFB824605E0FFF7A8FB16
:10104000A0EB0A0159454CD8286A8007F6D41FB195
:10105000E86920F08050E861E06988B36968C1F30D
:101060008101022944D00228C6F8608004D0FFF72D
:101070008FFB044638E034E0FFF78AFB074604E0C4
:10108000FFF786FBC01B02282BD828688001F7D405
:10109000206AB0F5803F05D16868A16820F400306F
:1010A00008436860D4E908010843696821F47411B1
:1010B00008436860C6F86090FFF76AFB044606E0E4
:1010C00025E000BFFFF764FB001B022809D8286851
:1010D0008001F7D51BE000BFFFF75AFB001B022879
:1010E00002D90320BDE8F88F28688001F4D40EE00F
:1010F0000128F7D06868226A00F48031914204D157
:10110000616A00F47010884201D00120EAE70020F3
:10111000E8E7000000100240000042428004424222
:1011200010000020007000407047704710B590F824
:101130003C20012A22D0012280F83C20CA688C6819
:1011400022F4407222434C6822F4806222430C68ED
:1011500022F4006222430C6922F4805222434C693B
:1011600022F400522243C969002322F480420A4338
:1011700001684A6480F83C30002010BD022010BD98
:1011800070B590F83C20012A26D0012480F83C401C
:10119000022280F83D2003685A689D6822F070069C
:1011A0000A6832435A600D4B02689A4208D0B2F185
:1011B000804F05D00A4B9A4202D00A4B9A4204D182
:1011C000496825F080031943916080F83D40002173
:1011D00080F83C10084670BD022070BD002C014014
:1011E000000400400008004010B5040003D094F84B
:1011F0003D0010B107E0012010BD002084F83C0044
:10120000204600F01FF8022084F83D00211D2068D0
:1012100000F096FC012084F8460084F83E0084F833
:101220003F0084F8400084F8410084F8420084F8CC
:10123000430084F8440084F8450084F83D00002011
:1012400010BD000000B585B0002100910191029110
:101250000391164A01681648914209D1816941F407
:1012600000618161806900F40060049005B000BDF8
:10127000104A9142FAD1C16941F00401C161C169CA
:1012800001F004010491816941F0080181618069E4
:10129000694600F00800049050150090022001906B
:1012A00003900548FFF77EF9E0E70000002C0140BD
:1012B0000010024000080040000C014090F83D1072
:1012C000012901D001207047022180F83D100168FA
:1012D000CA6842F00102CA6000680B49884208D01F
:1012E000B0F1804F05D00949884202D008498842B0
:1012F00004D1816801F00701062903D0016841F09B
:101300000101016000207047002C014000040040F2
:101310000008004070B5044690F83C000025012804
:1013200017D0012684F83C60022084F83D00206834
:10133000826822F0770222F47F4282600868502897
:1013400038D00DDC20284FD005DC90B3102811D107
:101350004AE0022070BD302846D040280AD13BE048
:1013600060282FD070280DD0B0F5805F03D0B0F585
:10137000005F12D0012584F83D60002084F83C0015
:10138000284670BDCB68D1E90121206800F01BFC24
:101390002068816841F0770109E0CB68D1E901213B
:1013A000206800F010FC2068816841F48041816071
:1013B000E1E719E0CA684968206800F0B9FC5021EB
:1013C000206806E0CA684968206800F0C2FC602115
:1013D000206800F002FCCEE7CA684968206800F087
:1013E000A7FC40212068F4E7226801461046F0E798
:1013F000704770B50446006801694FF00005C943A5
:10140000890715D4C168C943890711D4E91E016150
:1014100001202077206880698007204602D0FFF7EE
:10142000E7FF04E000F0D4F8204600F066F92577E5
:1014300020680169C943490717D4C168C9434907EE
:1014400013D46FF0040101610220207720688069C5
:1014500010F4407F204602D0FFF7CAFF04E000F0FE
:10146000B7F8204600F049F9257720680169C9439B
:10147000090716D4C168C943090712D46FF00801DF
:101480000161042020772068C0698007204602D0CF
:10149000FFF7AEFF04E000F09BF8204600F02DF9C6
:1014A000257720680169C943C90617D4C168C943B3
:1014B000C90613D46FF0100101610820207720685D
:1014C000C06910F4407F204602D0FFF791FF04E08E
:1014D00000F07EF8204600F010F9257720680169B9
:1014E000C943C90708D1C168C943C90704D1891EC6
:1014F0000161204600F050F920680169C9430906DE
:1015000009D4C168C943090605D46FF0800101619F
:101510002046FFF709FE20680169C943490609D43E
:10152000C168C943490605D46FF0400101612046F6
:1015300000F03CF920680169C94389060BD4C168F1
:10154000C943890607D46FF0200101612046BDE838
:101550007040FFF7EABD70BD00B585B00021009175
:10156000019102910391154B0268154802219A429C
:101570000ED1826942F0040282618069039100F019
:10158000040004904802CDE9000169460D4810E0CE
:101590000D4B9A420FD1826942F008028261806944
:1015A000039100F0080004909815CDE90001694608
:1015B0000648FEF7F7FF05B000BD0000002C014013
:1015C000001002400008014000080040000C0140EB
:1015D000704770B5044690F83C0000260D4601287F
:1015E0000FD0012084F83C006AB1042A1DD0082ADB
:1015F0002FD00C2A3FD00126002084F83C00304632
:1016000070BD022070BD206800F0F0FA206881698A
:1016100041F0080181612068816921F00401816144
:10162000206881692A69114311E0206800F006FBF7
:101630002068816941F4006181612068816921F439
:1016400080618161206881692A6941EA02218161A2
:10165000D2E7206800F01EFB2068C16941F0080154
:10166000C1612068C16921F00401C1612068C169BC
:101670002A69114311E0206800F038FB2068C16935
:1016800041F40061C1612068C16921F48061C161D8
:101690002068C1692A6941EA0221C161ACE710B53D
:1016A000040003D094F83D0010B107E0012010BD04
:1016B000002084F83C00204600F01EF8022084F848
:1016C0003D00211D206800F03BFA012084F846000F
:1016D00084F83E0084F83F0084F8400084F841001C
:1016E00084F8420084F8430084F8440084F84500FC
:1016F00084F83D00002010BD7047704710B50446C7
:10170000022249B104290ED0082913D094F84100CF
:10171000012816D0012010BD94F83E000128F9D10F
:1017200084F83E200FE094F83F000128F2D184F8BD
:101730003F2008E094F840000128EBD184F84020D5
:1017400001E084F841200122206800F02FFA0F49BF
:101750002068884203D1426C42F40042426420680F
:10176000884208D0B0F1804F05D00949884202D0A4
:101770000849884204D1816801F00701062903D095
:10178000016841F001010160002010BD002C014002
:10179000000400400008004000680349884201D16D
:1017A000FFF70CB970470000000400407047FEE7E7
:1017B0003EB5002411480094019402940E498460BF
:1017C000016004730475012505614FF460214460D4
:1017D000C161FEF70BFE08B1FEF787FD0620CDE9DB
:1017E0000005694602940548FEF782FD002801D0F5
:1017F000FEF77BFD3EBD00000024014014000020E8
:101800002DE9F04786B000242D48009401940294FD
:101810000394816941F010018161816901F0100137
:101820000491816941F020018161816901F0200109
:101830000491816941F004018161816901F0040131
:101840000491816941F0080181618069DFF8748049
:1018500000F008004FF4005504900022294640464D
:10186000FEF790FFDFF860904FF4C0570022394632
:101870004846FEF787FFDFF854A000223821504683
:10188000FEF780FF0095022601250396CDE901545D
:1018900069464046FEF786FE00970396CDE901545F
:1018A00069464846FEF77EFE3820CDE90005CDE9C1
:1018B000024669465046FEF775FE06B0BDE8F08761
:1018C000001002400010014000080140000C0140DF
:1018D0000D4810B50B4901600C49416000214FF4DF
:1018E00080428160C0E9031241618161C16101628E
:1018F000FEF754FF002803D0BDE81040FEF7F5BC0A
:1019000010BD00000054004044000020A0860100EB
:101910000D4810B50B4901600C49416000214FF49E
:1019200080428160C0E9031241618161C16101624D
:10193000FEF734FF002803D0BDE81040FEF7D5BC09
:1019400010BD00000058004098000020A086010053
:1019500010B596B000240F9410941194129413941F
:101960001C2108A81494FEF72FFC20216846FEF7DE
:101970002BFC2848264901604721C0E90114632156
:10198000C0E9031444618461FFF72EFC08B1FEF73F
:10199000ACFC4FF480500F900FA91E48FFF7BAFC23
:1019A00008B1FEF7A2FC1B48FFF779FE08B1FEF76D
:1019B0009CFC139413A917481494FFF7E1FB08B19A
:1019C000FEF793FC6020CDE908040A940B940C9474
:1019D0000D94082208A90F480E94FFF7FAFD08B1EC
:1019E000FEF783FC00944FF40050CDE904400294CC
:1019F00001940394694607480794FFF797FB08B1E1
:101A0000FEF773FC0348FFF7A7FD16B010BD0000FA
:101A1000002C0140EC00002010B58EB0002407948B
:101A2000089409940A940B941C2168460C94FEF7C0
:101A3000CBFB1E481C4901604721C0E9011463210A
:101A4000C0E903148461FFF7CFFB08B1FEF74DFC3A
:101A50004FF48050079007A91448FFF75BFC08B1CA
:101A6000FEF743FC1148FFF71AFE08B1FEF73DFCF4
:101A70000B940BA90D480C94FFF782FB08B1FEF7FD
:101A800034FC6020CDE9000402940822694607482E
:101A90000494FFF79EFD08B1FEF727FC0348FFF70B
:101AA0005BFD0EB010BD00000008004034010020B6
:101AB000FEE7FEE770477047704730B593B02821C6
:101AC0006846FEF781FB14210AA8FEF77DFB00257E
:101AD00001200F9510951195010412958DE82300B2
:101AE00004904FF4E010CDE90810022407946846F2
:101AF000FFF78AF908B172B6FEE70AA90F2081E85C
:101B000031004FF48060CDE90D0502210AA8FFF7EE
:101B10008FF808B172B6FEE74FF4004011900F94B1
:101B20000FA8FFF70FF8002801D072B6FEE713B038
:101B300030BD70470148FFF75CBC00007C0100200D
:101B4000F0B50268164B174C174D4FF0804798427E
:101B500005D0B84203D0A04201D0A84203D122F060
:101B600070064A683243984205D0B84203D0A0427A
:101B700001D0A84203D122F44074CA6822434C69C0
:101B800022F08002224302608A68C2620A6882628E
:101B9000984201D10969016301214161F0BD000052
:101BA000002C0140000400400008004010B501F086
:101BB0001F030121046A99408C430462016A9A4020
:101BC0001143016210BD10B5846842EA032224F477
:101BD0007F440A432243826010BD826822F0700273
:101BE0000A4342F0070181607047000030B5036A84
:101BF000026A22F0010202624268846924F07305DD
:101C00000C682C4323F002058B682B430A4DA84235
:101C10000BD123F00805CB6822F440722B434D69A9
:101C200023F0040315438A692A43426084614968AA
:101C30004163036230BD0000002C014030B5026AF0
:101C4000036A23F010030362436884690D6824F477
:101C5000E64444EA05248D6822F0200242EA051297
:101C60000B4DA8420ED1CD6822F0800242EA051247
:101C70004D6923F4406343EA85038D6922F04002F5
:101C800043EA85034360846149688163026230BD31
:101C9000002C014030B5036A026A22F480720262AD
:101CA0004268C46923F4007324F073050C682C4364
:101CB0008D6843EA05230C4DA8420ED1CD6823F46C
:101CC000006343EA05234D6922F4405242EA0512BB
:101CD0008D6923F4806342EA05124260C461496859
:101CE000C163036230BD0000002C014030B5046ABE
:101CF000026A22F4805202624268C3690D6823F4CA
:101D0000E64343EA05238D6824F4005444EA05348D
:101D1000064DA84204D14D6922F4804242EA851260
:101D20004260C36149680164046230BD002C014017
:101D300010B5036A046A24F001040462846924F083
:101D4000F00444EA021423F00A020A4384610262A6
:101D500010BD10B5036A046A24F01004046284699B
:101D600023F0A00324F4704444EA023243EA011150
:101D70008261016210BDFEE70907090E002804DB3D
:101D800000F1E02080F80014704700F00F0000F12F
:101D9000E02080F8141D7047FEF718FEFFF78DFE57
:101DA000FFF72EFDFFF794FDFFF702FDFFF7B0FDF3
:101DB000FFF7CEFDFFF730FE08211A48FFF79EFC23
:101DC00008211948FFF79AFC164FDFF85C80174D81
:101DD000174E184C4FF480594FF4006A0122082125
:101DE0002846FEF7CFFC012249463046FEF7CAFCE2
:101DF000002251463046FEF7C5FC39682088C8638A
:101E0000002210212846FEF7BDFC01222021284691
:101E1000FEF7B8FCD8F800006188C1636420FEF7C3
:101E2000AFFBDBE7EC00002034010020000C014098
:101E3000000801400000002001020203040506071B
:101E400008090A0B0C0D0E0F101000000000000016
:101E50000000010203040607080900000000010257
:101E600003040000841E000800000020140000008D
:101E700028010008981E0008140000201408000023
:101E8000440100080A0023000100000010000000C7
:081E9000000000000024F40032
:04000005080000ED02
:00000001FF
